:10000000802C040000000000042A0000082A0000E0
:100010000C2A0000102A0000142A0000002A000008
:10002000182A0000002A00001C2A0000202A0000D4
:10003000242A0000282A00002C2A0000002A0000A0
:10004000302A0000342A0000382A00003C2A000030
:10005000402A0000442A0000482A00004C2A0000E0
:10006000502A0000542A0000582A00005C2A000090
:10007000602A0000642A0000682A00006C2A000040
:10008000002A0000702A0000742A0000782A00006C
:100090007C2A0000802A0000842A0000882A0000B0
:1000A0008C2A0000902A0000002A0000002A00008C
:1000B000002A0000942A0000982A00009C2A0000D0
:1000C000A02A0000002A0000A42A0000A82A00009C
:1000D000002A0000AC2A0000B02A0000B42A000068
:1000E000B82A0000BC2A0000C02A0000C42A000070
:1000F000C82A0000CC2A0000D02A0000002A0000F4
:10010000D42A0000002A0000D82A0000DC2A0000BF
:10011000E02A0000E42A0000E82A0000EC2A00009F
:10012000F02A0000F42A0000F82A0000FC2A00004F
:10013000002A0000002B0000042B0000082B000008
:100140000C2B0000102B0000142B0000182B0000BB
:100150001C2B0000202B0000242B0000282B00006B
:100160002C2B0000302B0000002A0000342B000054
:10017000382B00003C2B0000402B0000442B0000DB
:10018000482B00004C2B0000502B0000542B00008B
:10019000582B00005C2B0000602B0000642B00003B
:1001A000682B00006C2B0000702B0000742B0000EB
:1001B000782B00007C2B0000802B0000842B00009B
:1001C000882B00008C2B0000902B0000942B00004B
:1001D000982B00009C2B0000A02B0000A42B0000FB
:1001E000A82B0000AC2B0000B02B0000B42B0000AB
:1001F000B82B0000BC2B0000C02B0000C42B00005B
:10020000C82B0000CC2B0000D02B0000D42B00000A
:10021000D82B0000DC2B0000E02B0000E42B0000BA
:10022000E82B0000EC2B0000F02B0000002A00005F
:10023000002A0000002A0000002A0000002A000016
:10024000002A0000002A0000002A0000002A000006
:10025000002A0000002A0000002A0000002A0000F6
:10026000F42B0000F82B0000FC2B0000002A0000FB
:10027000002A0000002A0000002A0000002C0000D4
:10028000042C0000002A0000082C00000C2C0000A8
:10029000002A0000002A0000002A0000002A0000B6
:1002A000002A0000002A0000002A0000002A0000A6
:1002B000002A0000002A0000002A0000002A000096
:1002C000002A0000002A0000002A0000102C000074
:1002D000142C0000182C00001C2C0000202C000006
:1002E000242C0000282C00002C2C0000302C0000B6
:1002F000342C0000382C00003C2C0000402C000066
:10030000442C0000002A0000002A0000002A0000FF
:10031000002A0000002A0000002A0000482C0000EB
:100320004C2C0000502C0000542C0000582C0000D5
:100330005C2C0000602C0000002A0000002A000055
:10034000002A0000002A0000002A0000002A000005
:10035000002A0000002A0000002A0000002A0000F5
:10036000002A0000002A0000002A0000002A0000E5
:10037000002A0000002A0000002A0000002A0000D5
:10038000002A0000002A0000002A0000002A0000C5
:10039000002A0000002A0000002A0000002A0000B5
:1003A000002A0000002A0000002A0000002A0000A5
:1003B000002A0000002A0000002A0000002A000095
:1003C000002A0000002A0000002A0000002A000085
:1003D000002A0000002A0000002A0000002A000075
:1003E000002A0000002A0000002A0000002A000065
:1003F000002A0000002A0000002A0000002A000055
:025000004A68FC
:105004000028000000000000FEB7000002000000BD
:10501400802C0400000000000000000002000000DA
:105024000000000002000000020000000400000074
:105034000000000000000000010000003C300000FF
:105044005430000064300000723000007E300000F4
:105054001C3000002C3000008C300000AC3000000C
:10506400000000000000FA00C3E8A80000000000EF
:1050740000000000000000000080FA0000000600AC
:105084000000FA00C3E8A9000000000000000000CE
:10509400000000000080FA00000006000000FA0092
:1050A400F7FF070098040700EEFF0700C0942200F2
:1050B4006E00070025A8A800000000000080FA0088
:1050C400000006000000FA0000002800E00288004A
:1050D400000000000080FA00000006000000FA0052
:1050E400000024000003880010C0B30000F0B700E3
:1050F400000000000080FA00000006000000FA0032
:105104000070EF00000000004003800061006000B8
:10511400E10F5000FCFF3A008000200020038800CB
:10512400000000000080FA00000006000200FA00FF
:105134000040EB00004F78004003800061006000F5
:10514400E10F500002003A0010C0B300004F780095
:105154001E4078000080FA00000006000000FA00FB
:1051640000D0BF000080FA00000006000400FA002E
:105174006000B800008FBE00B00380008000EB0028
:10518400C000DD0000002000008FBE00A0038000EE
:105194008000EB001E01BE000200700083807000DE
:1051A4000001780081007800020078000080FA0095
:1051B400000006000400FA006000B800008FBE0082
:1051C400D00380008000EB00C000DD000000200060
:1051D400008FBE00C00380008000EB001E01BE00F3
:1051E4000200700083807000000178008100780064
:1051F400020078000080FA00000006000200FA00B5
:105204000000EB00000F780041038000100E200026
:1052140000806000000F78001E0078000080FA0013
:10522400000006000400FA006000B800008FBE0011
:10523400700380008000EB00C000DD00000020004F
:10524400008FBE00600380008000EB001E01BE00E2
:1052540002007000838070000001780081007800F3
:10526400020078000080FA00000006000200FA0044
:10527400000F78001E0078000000E00002003200F9
:105284009E00780031808800000000000080FA0051
:10529400000006000000FA00000000000080FA0090
:1052A400000006000000FA0010002300307C880093
:1052B40020032000407C88008C2FEF001001200088
:1052C400507C880010102800707C8800D0072000D3
:1052D400807C880010022000907C88000050200010
:1052E400D07C8800B82FEF00BA2FEF00BE2FEF005C
:1052F400002DEF00A02FEF00A42FEF00A62FEF004A
:10530400A82FEF00AA2FEF00AE2FEF00B02FEF0071
:10531400B22FEF001200200080072000A109200016
:1053240053F8200080497800814978008249780048
:1053340012002000600420007105200043F82000C2
:105344008049780081497800824978000000000093
:10535400207C800000407800614060000004E00090
:10536400FBFF3A0000000000207C80004500DE00C6
:1053740061406000E14F5000FBFF3A000000000074
:105384000080FA00000006000000FA00707C800033
:105394004E00DE00614060000080FB0000F0A700CA
:1053A4000000EA000000EA004F00DE000040780040
:1053B4000080FA00000006000000FA00C3E8A8001C
:1053C4000000000000000000000000000080FA005F
:1053D400000006000000FA00B2FF07007203070095
:1053E4002EFF070023030700F3FF0700D503070080
:1053F400000000000080FA0000000600FA2E0400FD
:1054040000000000482E040000000000A62D040047
:1054140000000000C82D0400000000008C2E0400D1
:10542400000000006A2E040000000000EA2D0400C1
:1054340000000000002A040000000000D82E040030
:1054440000000000002A040000000000002A0400FC
:1054540000000000002A040000000000002A0400EC
:1054640000000000002A040000000000002A0400DC
:1054740000000000002A040000000000002A0400CC
:1054840000000000002A040000000000002A0400BC
:1054940000000000002A040000000000002A0400AC
:1054A40000000000002A040000000000002A04009C
:1054B40000000000002A040000000000002A04008C
:1054C40000000000002A040000000000002A04007C
:1054D40000000000002A040000000000002A04006C
:1054E40000000000002A040000000000002A04005C
:1054F40000000000002A040000000000002A04004C
:1055040000000000002A040000000000002A04003B
:1055140000000000002A040000000000002A04002B
:1055240000000000002A040000000000002A04001B
:1055340000000000002A040000000000002A04000B
:1055440000000000002A040000000000002A0400FB
:1055540000000000002A040000000000002A0400EB
:1055640000000000B02E040000000000002A040027
:1055740000000000002A040000000000002A0400CB
:1055840000000000002A040000000000002A0400BB
:1055940000000000002A040000000000002A0400AB
:1055A40000000000002A040000000000002A04009B
:1055B40000000000002A040000000000002A04008B
:1055C40000000000002A040000000000002A04007B
:1055D40000000000002A040000000000002A04006B
:1055E40000000000002A040000000000002A04005B
:1055F40000000000002A040000000000002A04004B
:1056040000000000002A040000000000002A04003A
:1056140000000000002A040000000000002A04002A
:1056240000000000002A040000000000002A04001A
:1056340000000000002A040000000000002A04000A
:1056440000000000002A040000000000002A0400FA
:1056540000000000002A040000000000002A0400EA
:1056640000000000002A040000000000002A0400DA
:1056740000000000002A040000000000002A0400CA
:1056840000000000002A040000000000002A0400BA
:1056940000000000002A040000000000002A0400AA
:1056A40000000000002A040000000000002A04009A
:1056B40000000000002A040000000000002A04008A
:1056C40000000000002A040000000000002A04007A
:1056D40000000000002A040000000000002A04006A
:1056E40000000000002A040000000000002A04005A
:1056F40000000000002A040000000000002A04004A
:1057040000000000002A040000000000002A040039
:1057140000000000002A040000000000002A040029
:1057240000000000002A040000000000002A040019
:1057340000000000002A040000000000002A040009
:1057440000000000002A040000000000002A0400F9
:1057540000000000002A040000000000002A0400E9
:1057640000000000002A040000000000002A0400D9
:1057740000000000002A040000000000002A0400C9
:1057840000000000002A040000000000002A0400B9
:1057940000000000002A040000000000002A0400A9
:1057A40000000000002A040000000000002A040099
:1057B40000000000002A040000000000002A040089
:1057C40000000000002A040000000000002A040079
:1057D40000000000002A040000000000002A040069
:1057E40000000000002A040000000000002A040059
:1057F40000000000002A040000000000002A040049
:1058040000000000002A040000000000002A040038
:1058140000000000002A040000000000002A040028
:1058240000000000002A040000000000002A040018
:1058340000000000002A040000000000002A040008
:1058440000000000002A040000000000002A0400F8
:1058540000000000002A040000000000002A0400E8
:1058640000000000002A040000000000002A0400D8
:1058740000000000002A040000000000002A0400C8
:1058840000000000002A040000000000002A0400B8
:1058940000000000002A040000000000002A0400A8
:1058A40000000000002A040000000000002A040098
:1058B40000000000002A040000000000002A040088
:1058C40000000000F03FB1000180B1000600350087
:1058D400EE03090000000000403FB1000180B10068
:1058E400FBFF3D001000B000203FB0000200350077
:1058F400008009000000000000000600CF02210023
:105904000EFF26000E0188000000000000002000A9
:105914000000E000020032000001200020028800A4
:1059240014000700340107000000E00003003A00FF
:105934006021230001002000020037000000200045
:1059440001002000810F7000010032000F000700E9
:10595400000020000000E00002003200000002000D
:1059640000000000D4310200000000000040DA0012
:105974000000FE00400120000000E00002003200B0
:10598400002020009001880000000600A102880089
:10599400800478000000EB001F003700E28444001C
:1059A40054A0B4009905BA00E284440054A0B400A1
:1059B4009906BA00E284440054A0B4000006EB0047
:1059C400476FDE00FD07B200AE018800636CE100A2
:1059D40003003A000AD801000000EB000E00370073
:1059E400606CE10008003A00004DEB000A05E80095
:1059F400020039003420EC000AF0A0008B05E90015
:105A0400F9FF3E00040037006168E1000100320044
:105A14000086EB000B00070019C7BA001905BA008D
:105A24000E04E00003003A000A00E000DBFF3A0045
:105A340000000600FE07B200AE0288008A04780067
:105A4400F5FF37000CD0A300E20F4D001C003B0013
:105A540089027800354DBA000A05E80002003900D1
:105A64003420EC000AF0A0008B05E9000F0032009E
:105A7400254DBA000A05E800020039003420EC0084
:105A84000AF0A0008B05E900080032000C00E000D9
:105A94000600320015CDBA000A05E80002003900FC
:105AA4003420EC000AF0A0008B05E9008984E800AA
:105AB40054A0B4000B00E000E2FF3A00000006002E
:105AC4009902BA00055D78008B05E900F7FF320002
:105AD400C82ADE00055D78008B05E900F3FF32007B
:105AE4000C00E000F1FF320019DDBA00EEFF3700D0
:105AF4004C29040000000000C03004000000000035
:105B04003C30040000000000543004000000000099
:105B14006430040000000000723004000000000043
:105B24007E300400000000001C300400000000006F
:105B34002C300400000000008C3004000000000041
:105B4400AC300400000000003600F800809FBE0066
:105B5400829FBE00849FBE00869FBE000000FA00A4
:105B6400C068A900200020001F02070000000000F8
:105B74000080FA004F03BE004F02BE004F01BE007A
:105B84004F00BE003600F900004006003600F80061
:105B9400809FBE00829FBE00849FBE00869FBE0081
:105BA4000000FA00C608A900700020000E020700D9
:105BB400000000000080FA004F03BE004F02BE0048
:105BC4004F01BE004F00BE003600F9000040060041
:105BD4003600F800809FBE00829FBE00849FBE00F6
:105BE400869FBE000000FA00204680004400DE00CC
:105BF40061406000E14F500003003A00C488A900EE
:105C0400A0002000F8010700204680004500DE00C7
:105C140061406000E14F500003003A00C4A8A900AD
:105C240090002000F0010700204680004800DE00BC
:105C340061406000E14F500003003A00C508A9002C
:105C4400C0002000E8010700204680004900DE0073
:105C540061406000E14F500003003A00C528A900EC
:105C6400D0002000E00107002046800000407800BA
:105C740061406000E14F500003003A00C408A900ED
:105C8400B0002000D8010700FFFF37003600F800FD
:105C9400809FBE00829FBE00849FBE00869FBE0080
:105CA4000000FA00C028A9000000EB00CE010700A4
:105CB400000000000080FA004F03BE004F02BE0047
:105CC4004F01BE004F00BE003600F9000040060040
:105CD4003600F800809FBE00829FBE00849FBE00F5
:105CE400869FBE000000FA00C088A9003000200092
:105CF400BD010700000000000080FA004F03BE0051
:105D04004F02BE004F01BE004F00BE003600F90036
:105D1400004006003600F800809FBE00829FBE004F
:105D2400849FBE00869FBE000000FA00B6010700F3
:105D3400C048A90010002000AB01070000000000CB
:105D44000080FA004F03BE004F02BE004F01BE00A8
:105D54004F00BE003600F900004006003600F8008F
:105D6400809FBE00829FBE00849FBE00869FBE00AF
:105D74000000FA00308080000000E00002003200E1
:105D8400308080000000010005A8A9000000000088
:105D94000080FA004F03BE004F02BE004F01BE0058
:105DA4004F00BE003600F900004006003600F8003F
:105DB400809FBE00829FBE00849FBE00869FBE005F
:105DC4000000FA0050808000000001000028A900B3
:105DD400000000000080FA004F03BE004F02BE0026
:105DE4004F01BE004F00BE003600F900004006001F
:105DF4000040DA000000FE00000005000400FA0084
:105E0400100798000040EB00004F78001E0090003F
:105E14000000E00002003D0010C0B300004F780015
:105E24001E4078000080FA00000006000400FA001A
:105E3400100798000040EB00004F78009E0090008F
:105E440000002400008060000000E0000200320036
:105E540010C0B300004F78001E4078000080FA00A4
:105E6400000006000400FA00100798000040EB0050
:105E7400004F78009E009000002020000080600009
:105E84000000E0000200320010C0B300004F7800B0
:105E94001E4078000080FA00000006000400FA00AA
:105EA400100798000040EB00004F78009E0090001F
:105EB40000082000008060000000E00002003200C2
:105EC40010C0B300004F78001E4078000080FA0034
:105ED400000006000400FA00100798000040EB00E0
:105EE400004F78009E0090000004200000806000B5
:105EF4000000E0000200320010C0B300004F780040
:105F04001E4078000080FA00000006000400FA0039
:105F1400100798000040EB00004F78001E0090002E
:105F2400700060000000E0000200320010C0B30006
:105F3400004F78001E4078000080FA000000060040
:105F44000200FA00000F78001E0078008080EA004A
:105F5400007C800000806000007C8800000000005D
:105F64000080FA00000006000000FA00007C8000B7
:105F74000080FA00000006000200FA00FAFF0700A1
:105F8400000F78001E0078009CFF07000004E0006A
:105F94000200320000002800E9FF07001E0078001C
:105FA400A2FF07000004E000020032000000240009
:105FB400E3FF07001E007800AAFF07000004E000CA
:105FC4000200320000202000DDFF07001E007800E0
:105FD400B2FF07000004E0000200320000082000C5
:105FE400D7FF07001E007800BAFF07000004E00096
:105FF4000200320000042000D1FF07001E007800D8
:10600400C2FF07000004E00002003200000120008B
:10601400CBFF0700000000000080FA00000006002B
:106024000000FA00802FEF00000000000080FA005A
:10603400000006000000FA00400880008000EB0029
:106044000001780081007800020078000080FA00E6
:10605400000006000000FA00200880008000EB0029
:106064000001780081007800020078000080FA00C6
:10607400000006000000FA0000022000000888006A
:106084000421EF0080D0230040088800000C230086
:10609400300007000B000700000000000080FA0039
:1060A400000006000000FA000D0007000021EF00C8
:1060B4000421EF0008A1EF00000000000080FA00B6
:1060C400000006000000FA000028A9002028A8000B
:1060D40001E1A800000000000080FA0000000600B2
:1060E4000000FA0001E1A9002028A9000000000036
:1060F4000080FA00000006000400FA00008FBE00D1
:106104001E00780040088800000000000080FA00AB
:10611400000006000200FA00000F78001E0078005C
:1061240000407800674060000080FB00670060006A
:106134004400DD0002428000F1F82F00810061007C
:106144000100700000428800000000000080FA0096
:10615400000006000200FA00000F78001E0078001C
:106164000000E000020032009E00780051808800A8
:10617400000000000080FA00000006000000FA00A1
:10618400000000000080FA00000006000200FA008F
:10619400000F78009E00780041088800000000008D
:1061A4000080FA00000006000000FA00062EEF004E
:1061B400222EEF003E2EEF005A2EEF00762EEF0037
:1061C400F0012000107088001EAEEF003AAEEF0020
:1061D40056AEEF00F0FF2C00907388000A2EEF00FB
:1061E400262EEF00422EEF005E2EEF007A2EEF00F7
:1061F4000C2EEF00282EEF00442EEF00602EEF004F
:1062040000002100E0738800082EEF00242EEF0028
:10621400402EEF005C2EEF00782EEF00F0012000FE
:1062240000708800F0092000E0708800F00C200065
:10623400C071880000C02200A0728800F000200015
:1062440080738800000000000080FA00000006004F
:106254000200FA00000F780003003700006A2800EB
:106264001100200097FD07001E007800000FE900D0
:106274000000E000F9FF3A00000000000080FA008E
:10628400000006000200FA00000F78000500370045
:1062940000C82000010020008AFD070001FE2F0035
:1062A4001E8F40001E007800FF0F5000F8FF3E00D4
:1062B40003003700400620000100200081FD070094
:1062C4001E007800000FE9000000E000F9FF3A002A
:1062D400000000000080FA00000006000000FE003C
:1062E4001429020000000000821F78001280800040
:1062F4000000110002002000810019004F01780005
:10630400000006000000FE00801F7800811F780056
:10631400821F780060038000801F78001429020027
:10632400000000004F017800020150000201E90062
:10633400128088004F017800CF0078004F00780069
:10634400000006000000FA00B042800064400A0029
:1063540000010000B04288000042800064400A004E
:106364000001000000428800000000000080FA00E4
:10637400000006000000FA00B042800064400A00F9
:1063840000040000B04288000042800064400A001B
:106394000004000000428800000000000080FA00B1
:1063A400000006000000FA000AFC0700778EA9002E
:1063B400B07380004D00DE00614060006140680001
:1063C4000080FB00610060004D00DD00B1738000BF
:1063D40001D0A10001007000B0738800803E20004D
:1063E4009BFF0700F2FF37000200FA00000F78005D
:1063F4009E007800418088000000FE00000000003C
:106404000080FA00000006000000FA00C00021002D
:10641400800778004002210000018800000000008D
:106424000080FA00000006000C10000020000000AC
:10643400800000000810000002000000820000003C
:10644400FFFF0000001000000800000080000000B2
:106454000A1000000200000080000000000000009C
:04646400FFFF3700FF
:020000040005F5
:047E0000FFFFFF0081
:047E2000FFFFFF0061
:047E300078FFFF00D8
:047E38007BFFFF00CD
:047E4000FF7FFF00C1
:047E4800FFFFFF0039
:047E5000DFFFFF0051
:047E58000000FF0027
:047E60000000FF001F
:047E68000000FF0017
:047E70000000FF000F
:047E7800FFFFFF0009
:047E8000FFFCFF0004
:047E8800FFFFFF00F9
:047FF800FFFFFF0088
:020000040100F9
:04300000FFFFFF00CF
:00000001FF
