:10000000642C040000000000042A0000082A0000FC
:100010000C2A0000102A0000142A0000002A000008
:10002000182A0000002A00001C2A0000202A0000D4
:10003000242A0000282A00002C2A0000002A0000A0
:10004000302A0000342A0000382A00003C2A000030
:10005000402A0000442A0000482A00004C2A0000E0
:10006000502A0000542A0000582A00005C2A000090
:10007000602A0000642A0000682A00006C2A000040
:10008000002A0000702A0000742A0000782A00006C
:100090007C2A0000802A0000842A0000882A0000B0
:1000A0008C2A0000902A0000002A0000002A00008C
:1000B000002A0000942A0000982A00009C2A0000D0
:1000C000A02A0000002A0000A42A0000A82A00009C
:1000D000002A0000AC2A0000B02A0000B42A000068
:1000E000B82A0000BC2A0000C02A0000C42A000070
:1000F000C82A0000CC2A0000D02A0000002A0000F4
:10010000D42A0000002A0000D82A0000DC2A0000BF
:10011000E02A0000E42A0000E82A0000EC2A00009F
:10012000F02A0000F42A0000F82A0000FC2A00004F
:10013000002A0000002B0000042B0000082B000008
:100140000C2B0000102B0000142B0000182B0000BB
:100150001C2B0000202B0000242B0000282B00006B
:100160002C2B0000302B0000002A0000342B000054
:10017000382B00003C2B0000402B0000442B0000DB
:10018000482B00004C2B0000502B0000542B00008B
:10019000582B00005C2B0000602B0000642B00003B
:1001A000682B00006C2B0000702B0000742B0000EB
:1001B000782B00007C2B0000802B0000842B00009B
:1001C000882B00008C2B0000902B0000942B00004B
:1001D000982B00009C2B0000A02B0000A42B0000FB
:1001E000A82B0000AC2B0000B02B0000B42B0000AB
:1001F000B82B0000BC2B0000C02B0000C42B00005B
:10020000C82B0000CC2B0000D02B0000D42B00000A
:10021000D82B0000DC2B0000E02B0000E42B0000BA
:10022000E82B0000EC2B0000F02B0000002A00005F
:10023000002A0000002A0000002A0000002A000016
:10024000002A0000002A0000002A0000002A000006
:10025000002A0000002A0000002A0000002A0000F6
:10026000F42B0000F82B0000FC2B0000002A0000FB
:10027000002A0000002A0000002A0000002C0000D4
:10028000042C0000002A0000082C00000C2C0000A8
:10029000002A0000002A0000002A0000002A0000B6
:1002A000002A0000002A0000002A0000002A0000A6
:1002B000002A0000002A0000002A0000002A000096
:1002C000002A0000002A0000002A0000102C000074
:1002D000142C0000182C00001C2C0000202C000006
:1002E000242C0000282C00002C2C0000302C0000B6
:1002F000342C0000382C00003C2C0000402C000066
:10030000442C0000002A0000002A0000002A0000FF
:10031000002A0000002A0000002A0000482C0000EB
:100320004C2C0000502C0000542C0000582C0000D5
:100330005C2C0000602C0000002A0000002A000055
:10034000002A0000002A0000002A0000002A000005
:10035000002A0000002A0000002A0000002A0000F5
:10036000002A0000002A0000002A0000002A0000E5
:10037000002A0000002A0000002A0000002A0000D5
:10038000002A0000002A0000002A0000002A0000C5
:10039000002A0000002A0000002A0000002A0000B5
:1003A000002A0000002A0000002A0000002A0000A5
:1003B000002A0000002A0000002A0000002A000095
:1003C000002A0000002A0000002A0000002A000085
:1003D000002A0000002A0000002A0000002A000075
:1003E000002A0000002A0000002A0000002A000065
:1003F000002A0000002A0000002A0000002A000055
:02500000278CFB
:105004000028000000000000FEB7000002000000BD
:10501400642C0400000000000000000002000000F6
:105024000000000002000000020000000400000074
:1050340000000000000000000200000068510000B1
:10504400AC520000BE410000AE410000CE41000061
:10505400DC410000EA410000F8410000C8400000C3
:105064003E420000844200000A4300005043000016
:10507400DE430000A444000052450000B245000095
:10508400EE4500002A46000066460000A2460000E5
:10509400E84600002E47000084470000CA4700008D
:1050A400C8480000C44A0000C649000000000000CF
:1050B40000000000000000000000000000000000EC
:1050C400000000008C40000050400000824D0000B1
:1050D400C84D00000E4E0000C64C0000024D0000FA
:1050E4002C510000544E00000A4F0000C04F000035
:1050F40076500000B853000000000000D6530000B2
:10510400000000004A670000C46700006A670000EE
:1051140000000000CE620000F2620000166300008E
:10512400366300004865000084650000BE66000028
:105134007E6300007A640000A6610000B061000094
:10514400BA610000C4610000CE610000D8610000B3
:105154000062000044620000906200009A62000055
:10516400A4620000AE620000106700002C6700001B
:1051740084A80000566C0000B86C0000E06C0000CD
:105184000A6D0000386D00004E6D0000826D000055
:10519400B86D0000C26D00000000000000000000B7
:1051A400CC6D0000F66D00000E6E0000266E00004F
:1051B400406E0000606E0000066F00007C6F00000F
:1051C4008A6F0000A66F0000C26F0000DE6F00004F
:1051D400FA6F000016700000A07D0000D47D00006E
:1051E400747C00006A7C00007E7C00009A7C0000D5
:1051F400A27C0000BA7C0000E27C0000FA7C000083
:10520400107D00001A7D0000247D0000407D000018
:10521400487D0000607D0000807D00003C7F000030
:10522400707F0000107E0000067E00001A7E0000E1
:10523400367E00003E7E0000567E00007E7E00002A
:10524400967E0000AC7E0000B67E0000C07E0000AA
:10525400DC7E0000E47E0000FC7E00001C7F000079
:10526400007600004A760000F27300002674000005
:105274005A74000098740000D87400000C75000083
:105284004A750000887500009A760000B876000020
:105294000007000007080000090A00000A0B0000CC
:1052A4000F13000015170000171800001C1C000045
:1052B4001D210000252B00002F3C000044000000AD
:1052C4006481000084810000B6810000AC8100008C
:1052D400E6810000CE810000DC810000A081000096
:1052E4002882000000000000768600008C86000002
:1052F4009C860000AA860000B68600005686000040
:1053040066860000C4860000E486000000000000F9
:10531400D4290000E4290000A2290000AC290000DF
:10532400B629000000000000EE890000FE8900009C
:10533400BE890000C8890000D28900000000000076
:105344000000FA00DC28A800000000000080FA0039
:10535400000006000000FA00DC28A900000000009C
:105364000080FA00000006000200FA00000F780036
:105374001E007800004078006140600061406000D9
:1053840000404000E18D2000914078000114A1000C
:1053940000C07000DEE8B700000000000080FA00E2
:1053A400000006000000FA00DDE8A8000000EB00A1
:1053B400EDFF0700E2FF0700000000000080FA0094
:1053C400000006000000FA00DDE8A900E1FF070084
:1053D400000000000080FA0000000600809FBE006C
:1053E400EC8057003100780050828800110078006A
:1053F4004CF0B7004F00BE00000006001836040051
:1054040000000000002A040000000000002A04003C
:1054140000000000002A040000000000002A04002C
:1054240000000000002A040000000000002A04001C
:1054340000000000002A040000000000863204007E
:1054440000000000002A040000000000002A0400FC
:1054540000000000002A040000000000002A0400EC
:1054640000000000002A040000000000002A0400DC
:1054740000000000002A040000000000002A0400CC
:10548400000000000E33040000000000A8320400F5
:1054940000000000002A040000000000002A0400AC
:1054A40000000000002A040000000000A2340400F0
:1054B40000000000002A040000000000002A04008C
:1054C40000000000002A040000000000002A04007C
:1054D40000000000002A040000000000002A04006C
:1054E40000000000002A040000000000002A04005C
:1054F40000000000002A040000000000002A04004C
:1055040000000000002A040000000000002A04003B
:1055140000000000002A040000000000002A04002B
:1055240000000000002A040000000000002A04001B
:1055340000000000002A040000000000002A04000B
:1055440000000000002A040000000000002A0400FB
:1055540000000000002A040000000000002A0400EB
:10556400000000005E32040000000000002A040075
:1055740000000000002A040000000000423404007F
:10558400000000009A33040000000000002A040018
:1055940000000000002A040000000000002A0400AB
:1055A400000000007234040000000000002A04001F
:1055B40000000000002A040000000000002A04008B
:1055C40000000000002A040000000000002A04007B
:1055D40000000000002A040000000000002A04006B
:1055E40000000000002A040000000000263104002E
:1055F40000000000002A040000000000002A04004B
:1056040000000000002A040000000000002A04003A
:1056140000000000002A040000000000002A04002A
:1056240000000000002A040000000000002A04001A
:1056340000000000002A040000000000002A04000A
:1056440000000000002A040000000000002A0400FA
:1056540000000000002A040000000000002A0400EA
:1056640000000000002A040000000000002A0400DA
:1056740000000000002A040000000000002A0400CA
:1056840000000000002A040000000000002A0400BA
:1056940000000000002A040000000000002A0400AA
:1056A40000000000002A0400000000003230040062
:1056B40000000000A630040000000000E6300400F2
:1056C40000000000002A040000000000002A04007A
:1056D40000000000002A040000000000002A04006A
:1056E40000000000002A040000000000002A04005A
:1056F40000000000002A040000000000002A04004A
:1057040000000000002A040000000000002A040039
:1057140000000000002A040000000000002A040029
:1057240000000000002A040000000000002A040019
:1057340000000000002A040000000000002A040009
:1057440000000000002A040000000000002A0400F9
:1057540000000000002A040000000000002A0400E9
:1057640000000000002A040000000000002A0400D9
:1057740000000000002A040000000000002A0400C9
:1057840000000000002A040000000000002A0400B9
:1057940000000000002A040000000000002A0400A9
:1057A40000000000002A040000000000002A040099
:1057B40000000000002A040000000000002A040089
:1057C40000000000002A040000000000002A040079
:1057D40000000000002A040000000000002A040069
:1057E40000000000002A040000000000002A040059
:1057F40000000000002A040000000000002A040049
:1058040000000000002A040000000000002A040038
:1058140000000000002A040000000000002A040028
:1058240000000000002A040000000000002A040018
:1058340000000000002A040000000000002A040008
:1058440000000000002A040000000000002A0400F8
:1058540000000000002A040000000000002A0400E8
:1058640000000000002A040000000000002A0400D8
:1058740000000000002A040000000000002A0400C8
:1058840000000000002A0400000000003634040078
:1058940000000000002A040000000000002A0400A8
:1058A40000000000002A040000000000002A040098
:1058B40000000000002A040000000000002A040088
:1058C400000000008F2821004EFE26000E018800F3
:1058D40000000000000020000000E0000200320090
:1058E400000120002002880014000700C205070000
:1058F4000000E00003003A00C04C28000100200032
:10590400020037000000200001002000810F700019
:10591400010032000F000700000020000000E0003A
:10592400020032000000020000000000348B02007C
:10593400000000000040DA000000FE0020182000F3
:105944000000E000020032000020200090018800E6
:1059540000000600A1028800800478000000EB002B
:105964001F003700E284440054A0B4009905BA0033
:10597400E284440054A0B4009906BA00E2844400CE
:1059840054A0B4000006EB00476FDE00FD07B20030
:10599400AE018800636CE10003003A000AD80100FC
:1059A4000000EB000E003700606CE10008003A00D4
:1059B400004DEB000A05E800020039003420EC0039
:1059C4000AF0A0008B05E900F9FF3E00040037004F
:1059D4006168E100010032000086EB000B00070063
:1059E40019C7BA001905BA000E04E00003003A0012
:1059F4000A00E000DBFF3A0000000600FE07B200E8
:105A0400AE0288008A047800F5FF37000CD0A300AA
:105A1400E20F4D001C003B0089027800354DBA00AE
:105A24000A05E800020039003420EC000AF0A00066
:105A34008B05E9000F003200254DBA000A05E80085
:105A4400020039003420EC000AF0A0008B05E900C4
:105A5400080032000C00E0000600320015CDBA0048
:105A64000A05E800020039003420EC000AF0A00026
:105A74008B05E9008984E80054A0B4000B00E00021
:105A8400E2FF3A00000006009902BA00055D7800C2
:105A94008B05E900F7FF3200C82ADE00055D7800B7
:105AA4008B05E900F3FF32000C00E000F1FF320047
:105AB40019DDBA00EEFF370024670400000000007F
:105AC4005E67040000000000D867040000000000C6
:105AD4004A67040000000000C467040000000000DE
:105AE4006A67040000000000CE62040000000000A9
:105AF400F2620400000000001663040000000000CD
:105B04003663040000000000486504000000000043
:105B14008465040000000000BE660400000000006C
:105B24007E630400000000007A64040000000000AA
:105B3400A661040000000000B06104000000000041
:105B4400BA61040000000000C46104000000000009
:105B5400CE61040000000000D861040000000000D1
:105B64000062040000000000446204000000000021
:105B740090620400000000009A620400000000002B
:105B8400A462040000000000AE62040000000000F3
:105B940010670400000000002C67040000000000EF
:105BA400AE7604000000000000760400000000004F
:105BB4004A76040000000000F273040000000000B4
:105BC40026740400000000005A7404000000000061
:105BD4009874040000000000D87404000000000061
:105BE4000C750400000000004A7504000000000069
:105BF40088750400000000009A760400000000008C
:105C0400B8760400000000003C820400000000009C
:105C1400648104000000000084810400000000008E
:105C2400B681040000000000AC8104000000000004
:105C3400E681040000000000CE81040000000000A2
:105C4400DC81040000000000A081040000000000CA
:105C54002882040000000000D42904000000000091
:105C6400E429040000000000A22904000000000050
:105C7400AC29040000000000B62904000000000064
:105C8400EE89040000000000FE890400000000000A
:105C9400BE89040000000000C88904000000000060
:105CA400D289040000000000CC530400000000006E
:105CB4006851040000000000AC5204000000000021
:105CC400BE41040000000000AE41040000000000DA
:105CD400CE41040000000000DC410400000000008C
:105CE400EA41040000000000F84104000000000044
:105CF400C8400400000000003E4204000000000010
:105D040084420400000000000A4304000000000074
:105D14005043040000000000DE43040000000000C3
:105D2400A4440400000000005245040000000000E8
:105D3400B245040000000000EE450400000000002D
:105D44002A4604000000000066460400000000002B
:105D5400A246040000000000E84604000000000021
:105D64002E470400000000008447040000000000E7
:105D7400CA47040000000000C848040000000000F6
:105D8400C44A040000000000C649040000000000EA
:105D94008C4004000000000050400400000000009B
:105DA400824D040000000000C84D04000000000003
:105DB4000E4E040000000000C64C04000000000069
:105DC400024D0400000000002C51040000000000FB
:105DD400544E0400000000000A4F040000000000BC
:105DE400C04F0400000000007650040000000000D2
:105DF400B853040000000000D65304000000000063
:105E0400A07D040000000000D47D04000000000018
:105E1400747C0400000000006A7C040000000000A0
:105E24007E7C0400000000009A7C04000000000056
:105E3400A27C040000000000BA7C04000000000002
:105E4400E27C040000000000FA7C04000000000072
:105E5400107D0400000000001A7D04000000000012
:105E6400247D040000000000407D040000000000C8
:105E7400487D040000000000607D04000000000074
:105E8400807D0400000000003C7F0400000000004E
:105E9400707F040000000000107E04000000000079
:105EA400067E0400000000001A7E040000000000CA
:105EB400367E0400000000003E7E04000000000066
:105EC400567E0400000000007E7E040000000000F6
:105ED400967E040000000000AC7E04000000000078
:105EE400B67E040000000000C07E04000000000034
:105EF400DC7E040000000000E47E040000000000DA
:105F0400FC7E0400000000001C7F04000000000070
:105F1400A883040000000000FC86040000000000C8
:105F240076860400000000008C8604000000000057
:105F34009C86040000000000AA8604000000000003
:105F4400B68604000000000056860400000000002D
:105F54006686040000000000C486040000000000FF
:105F6400E4860400000000009E6F040000000000AE
:105F7400BA6F040000000000D66F040000000000A7
:105F8400F26F0400000000000E7004000000000026
:105F94002A70040000000000566C04000000000099
:105FA400B86C040000000000E06C04000000000075
:105FB4000A6D040000000000386D040000000000B9
:105FC4004E6D040000000000826D0400000000001B
:105FD400B86D040000000000C26D04000000000061
:105FE400CC6D040000000000F66D04000000000009
:105FF4000E6E040000000000266E04000000000085
:10600400406E040000000000606E04000000000008
:10601400066F0400000000007C6F04000000000014
:106024008A6F040000000000A66F04000000000056
:10603400C26F040000000000DE6F040000000000D6
:10604400FA6F040000000000167004000000000055
:106054000A8A0400000000004260040000000000FE
:106064003600F800809FBE00829FBE00849FBE0061
:10607400869FBE003200F8003400F80010002000B3
:10608400A00188000020200000D0FE000200FA00D9
:10609400A08180000000E00002003200A0818000A6
:1060A40000000100504080004B00DE0061406000B1
:1060B400E14F50000A003A00C1C02000110F7800DF
:1060C400B08180000000E00004003200B281800052
:1060D4009E0078000000EB00020001000B68A9009C
:1060E400504080004C00DE0061406000E14F5000F1
:1060F4000A003A00E1C02000110F7800B08180004E
:106104000000E00004003200B28180009E007800AC
:1061140010002000020001000B88A9000B48A90010
:10612400000000000080FA003400F9003200F90099
:106134004F03BE004F02BE004F01BE004F00BE0021
:106144003600F900004006003600F800809FBE00CB
:10615400829FBE00849FBE00869FBE003200F8006E
:106164003400F80010002000A00188000020200066
:1061740000D0FE000200FA00C1C02000110F780018
:10618400B08180000000E00004003200B281800091
:106194009E0078000000EB00020001000B68A900DB
:1061A400000000000080FA003400F9003200F90019
:1061B4004F03BE004F02BE004F01BE004F00BE00A1
:1061C4003600F900004006003600F800809FBE004B
:1061D400829FBE00849FBE00869FBE003200F800EE
:1061E4003400F80010002000A001880000202000E6
:1061F40000D0FE000200FA00E1C02000110F780078
:10620400B08180000000E00004003200B281800010
:106214009E00780010002000020001000B88A900F5
:10622400000000000080FA003400F9003200F90098
:106234004F03BE004F02BE004F01BE004F00BE0020
:106244003600F900004006003600F800809FBE00CA
:10625400829FBE00849FBE00869FBE000000FA009D
:106264001000200030828800408280000000E0009E
:106274000300320041828000500020000100010030
:106284000808A900000000000080FA004F03BE00C7
:106294004F02BE004F01BE004F00BE003600F900A1
:1062A400004006003600F800809FBE00829FBE00BA
:1062B400849FBE00869FBE000000FA00C068A9004B
:1062C40020002000D72C0700000000000080FA0006
:1062D4004F03BE004F02BE004F01BE004F00BE0080
:1062E4003600F900004006003600F800809FBE002A
:1062F400829FBE00849FBE00869FBE000000FA00FD
:10630400C608A90070002000C62C07000000000089
:106314000080FA004F03BE004F02BE004F01BE00D2
:106324004F00BE003600F900004006003600F800B9
:10633400809FBE00829FBE00849FBE00869FBE00D9
:106344000000FA00204680004400DE006140600046
:10635400E14F500003003A00C488A900A0002000C7
:10636400B02C0700204680004500DE00614060003C
:10637400E14F500003003A00C4A8A9009000200097
:10638400A82C0700204680004800DE006140600021
:10639400E14F500003003A00C508A900C0002000E6
:1063A400A02C0700204680004900DE006140600008
:1063B400E14F500003003A00C528A900D000200096
:1063C400982C07002046800000407800614060005F
:1063D400E14F500003003A00C408A900B0002000B7
:1063E400902C0700FFFF37003600F800809FBE00A6
:1063F400829FBE00849FBE00869FBE000000FA00FC
:10640400C028A9000000EB00862C07000000000053
:106414000080FA004F03BE004F02BE004F01BE00D1
:106424004F00BE003600F900004006003600F800B8
:10643400809FBE00829FBE00849FBE00869FBE00D8
:106444000000FA00C088A90030002000752C070065
:10645400000000000080FA004F03BE004F02BE009F
:106464004F01BE004F00BE003600F9000040060098
:106474003600F800809FBE00829FBE00849FBE004D
:10648400869FBE000000FA006E2C0700C048A900D9
:1064940010002000632C0700000000000080FA00B8
:1064A4004F03BE004F02BE004F01BE004F00BE00AE
:1064B4003600F900004006003600F800809FBE0058
:1064C400829FBE00849FBE00869FBE000000FA002B
:1064D400508180000000E000020032005081800002
:1064E4000000010005A8A900000000000080FA00D7
:1064F4004F03BE004F02BE004F01BE004F00BE005E
:106504003600F900004006003600F800809FBE0007
:10651400829FBE00849FBE00869FBE000000FA00DA
:10652400F0828000000001000028A90000000000A3
:106534000080FA004F03BE004F02BE004F01BE00B0
:106544004F00BE003600F900004006003600F80097
:10655400809FBE00829FBE00849FBE00869FBE00B7
:106564000000FA004180800030808000808F50005D
:106574001A003A00708080000000E000020032003F
:1065840070808000000001002188A90010C0B300C1
:1065940060F0B70018003700408080001040780099
:1065A4000080FB0040128800408080000000E8006A
:1065B400408088004180800010222100808F50009C
:1065C40002003A00001E21004080880041808000C3
:1065D40030808000808F500006003200F01180006F
:1065E4004400DE0061406000E14F5000EAFF3A00E1
:1065F4000100370000000000000000000080FA00E5
:106604004F03BE004F02BE004F01BE004F00BE004C
:106614003600F900004006003600F800809FBE00F6
:10662400829FBE00849FBE00869FBE000400FA00C5
:106634000000EB00000F78000000EB00100798004A
:106644000168A90028003700211280001080800012
:10665400814078000148780000042000000F780091
:1066640011808000110798000E80E8008E80E800F9
:106674001108E8009000780011079800102221000A
:106684009E00400010808000808F5000080032007F
:10669400208080009E009000808F50000400320013
:1066A400108080000000E800108088000E00370091
:1066B400102221009E00400010808000808F500036
:1066C40007003A002180800010222100808F5000B2
:1066D40003003200102221001080880002003700DD
:1066E40010C0B3000AF0B700F01180000000D10020
:1066F40061406000E14F5000D3FF3A0060808000A9
:106704000000E00002003200608080000000010010
:10671400000000000080FA004F03BE004F02BE00DC
:106724004F01BE004F00BE003600F90000400600D5
:106734003600F800809FBE00829FBE00849FBE008A
:10674400869FBE000000FA00E01180004500DE00D4
:1067540061406000E14F500004003A000080800076
:106764000040A000008088003CA2A900E011800045
:106774000040780061406000E14F500009003A0099
:10678400008080000030A0000080880080808000AD
:106794000000E00002003200808080000000010060
:1067A4003C02A900E01180000000D10061406000BB
:1067B400E14F500009003A00008080000020A00052
:1067C40000808800A08080000000E0000200320009
:1067D400A0808000000001003C22A900E01180009C
:1067E4004600DE0061406000E14F500008003A00BE
:1067F400008080000010A00000808800B08080002D
:106804000000E00002003200B080800000000100BF
:10681400E01180004300DE0061406000E14F500061
:1068240008003A00008080000000A000008088007A
:10683400908080000000E000020032009080800020
:10684400000001000628A900000000000080FA00F2
:106854004F03BE004F02BE004F01BE004F00BE00FA
:106864003600F900004006000000FA005CC2A900EE
:1068740017A8A900000000000080FA0000400600EC
:106884003600F800809FBE00829FBE00849FBE0039
:10689400869FBE003200F8003400F800100020008B
:1068A400A00188000020200000D0FE000000FA00B3
:1068B4000A2B07000608A900000000000080FA0067
:1068C4003400F9003200F9004F03BE004F02BE004D
:1068D4004F01BE004F00BE003600F9000040060024
:1068E4003600F800809FBE00829FBE00849FBE00D9
:1068F400869FBE003200F8003400F800100020002B
:10690400A00188000020200000D0FE000000FA0052
:10691400F62A070006C8A900000000000080FA005B
:106924003400F9003200F9004F03BE004F02BE00EC
:106934004F01BE004F00BE003600F90000400600C3
:106944003600F800809FBE00829FBE00849FBE0078
:10695400869FBE000200FA0060818000E20F5000B2
:1069640092003200E20F500003003900E30F5000A0
:1069740081003200A1003700001080004A00DE00D0
:10698400614060000004E00005003A00201080002F
:106994004500DE00614060000004E0000A003200AF
:1069A400001080004700DE0061406000E14F5000AD
:1069B40029003A00201080004900DE006140600098
:1069C400E14F500024003A00201080004200DE0015
:1069D400614060000004E0000E003A001000200056
:1069E40081210700708180000000E0000500320072
:1069F400C1108000708180008140780001487800D7
:106A040001003700000000001000200060818800B1
:106A14003B003700C0108000004F78000000EB00FE
:106A240071210700808180000000E0000600320030
:106A340080818000104078000080FB00A010880056
:106A44000182A8000100370000000000200020009F
:106A5400608188002A003700001080004A00DE00B0
:106A640061406000E14F500025003A002010800092
:106A74004500DE00614060000004E00020003A00B0
:106A8400201080004200DE00614060000004E0004D
:106A940004003A003270EF0030002000608188006A
:106AA4001500370032D0BF000004E0000F003200B0
:106AB4000000EB004C210700808180000000E00012
:106AC4000600320080818000104078000080FB00C6
:106AD400A01088000182A800010037000000000017
:106AE4002000200060818800030037003270EF002E
:106AF4003000200060818800C0108000004F7800C2
:106B040060818000E10F50003D003A0020108000B9
:106B14004500DE0061406000E14F500038003A005B
:106B2400201080004600DE0061406000E14F50000C
:106B34000D003200708180000000E000050032008A
:106B4400C110800070818000814078000148780085
:106B5400010037000000000020002000222107006F
:106B64006AF0B70026003700C0108000004F78009C
:106B740004C2A90022003700300020001A210700B7
:106B84006AF0B70010C0B30032F0B7006AD0BF009B
:106B94000004E00002003200C0108000004F7800C2
:106BA400100020006081880016003700201080004B
:106BB4004F00DE00004078000004E0000D003A00C1
:106BC4000000EB0008210700808180000000E00045
:106BD40002003A00000000000A00370080818000B3
:106BE400104078000080FB00A01088000182A800FB
:106BF400040037002C30EF0002003700FFFF37009D
:106C0400000000000182A8000208A90000000000A2
:106C14000080FA004F03BE004F02BE004F01BE00C9
:106C24004F00BE003600F900004006000040DA00C4
:106C34000000FE00881F78008A1F78004400F800D6
:106C4400080F20002802880000049000100590001E
:106C5400A000900030019000C00190000300CA0021
:106C64000280CA000030CB001A00CD004604C300E5
:106C74000100CA004604C0001E04C0000605C0008E
:106C84000100CD0021009800050D7800EABA9700B4
:106C9400052578004400F9004F0578004F0478007A
:106CA40000000600801F78004000B0000008EB00E0
:106CB4004F007800801F7800100090000018EB004F
:106CC4000018EB000008EB004F00780000000600FD
:106CD4004400F800020F200022028800910078008E
:106CE4003000CA003080CA000000CB002080CA00F7
:106CF4000000CB003100CD004000CA000000CB00F2
:106D04000000CB000010CB003100CD001180CC007E
:106D14004400F900000006000800FA00100798007B
:106D240021079800320798000000EB00000F78005C
:106D340000000000721B0700614068000004E000CE
:106D4400FCFF3A000B00370000000000521B070054
:106D5400614068000004E000FCFF3A001E00780077
:106D6400000FE800E40047001100400010407800E4
:106D7400271B07003E0090009E007800808F500083
:106D8400F1FF39001E0078000080FA0000000600C0
:106D94000100E00005003A000000E00003003A00B2
:106DA4000000EB008000EB00000006000200E000A1
:106DB40012003500F40120000410E1000300340047
:106DC400CF88DE0001007800000006007010E100AA
:106DD40006003C000200DE0070021100840ADD009F
:106DE400050070008288DE00000006007002510079
:106DF4000488DE00CF80DE00000006008201EA0085
:106E0400F40120000418E1000800340001027800B5
:106E1400010028000000EB0004F0A70000000600B9
:106E2400F1FF2700F0FF2F00000006000201EA0036
:106E3400130020007010E10003003D00021ADD0081
:106E44008002EB000300370070035100861ADD0056
:106E54000002EB00889FBE008A9FBE008C9FBE008C
:106E64004F89DE000404B8000506B8008904460012
:106E740060854E00040EB800890446000A854E0061
:106E8400E0854D00050EB8000A0546008B854E00CE
:106E94000416B8000A0546008B854E008B05460093
:106EA4000516B8008B0546000BF0A3001200310054
:106EB4000B00E00004003A000A00E00002003A007F
:106EC40009F0A30006003900F0FF2F00F1FF2700AE
:106ED4004F06BE004F05BE004F04BE000000060072
:106EE40008007800890078004F06BE004F05BE00F8
:106EF4004F04BE0000000600F4FF2F000458E10018
:106F040005003A000450E10003003A0004002800A0
:106F14000448E100060031000000EB0001002800F5
:106F24004F06BE004F05BE004F04BE000000060021
:106F340008007800890078004F06BE004F05BE00A7
:106F44004F04BE0000000600839F68000100E000BB
:106F540002003D0060001000E08018000300E00023
:106F640002003D0060011100E081190010000700DB
:106F74004F00E00002003B0060001000E0801800B9
:106F8400000006000202B800020BB90006824200AB
:106F9400E0824B000383B8000388B90086004200F6
:106FA40000804B00008042008000FD0000000600CD
:106FB400610AB800800078000000EB00060220009F
:106FC4000000D0008180D2000482D2008582D200E9
:106FD4000000A0000202520083825A0003003B001A
:106FE4000202420083824A000000A1000603E90075
:106FF400F3FF3A0000000600000005001400200022
:107004009E0337000001BE00220007000470A700A1
:1070140003F0A1006509B100160032000D0035002F
:107024006828E10006003500F0FF2F00F1FF27007B
:107034000300E00013003B000100280000000500ED
:1070440000004000818048008502E900FCFF3A000E
:1070540008003700F88F420002003C008000EB007B
:10706400000005008100D1000080D3008502E80003
:10707400FCFF3A000300E00002003B006000100047
:10708400E0801800000006004F89DE0082017800CD
:1070940095033700C70ADE00F107B200F50FB2000E
:1070A40008003200E1CF4200020032000170A0006B
:1070B40024000500810F700001003200040805005F
:1070C40044000500810F700002003A00140005001E
:1070D4008502E9000000400081C04800FCFF3B003D
:1070E4000170A000240005006022B8000602200000
:1070F4000000D0008180D2000482D2008582D200B8
:107104000000A0000202520083825A0003003100F2
:107114000202420083824A000000A1000603E90043
:10712400F3FF3A000000060007F827000783610018
:107134000638E10004003A00F70720008783610065
:107144008703710001003A0003F0A200889FBE008B
:107154008A9FBE008C9FBE00470ADE000480A10007
:10716400C71ADE000580A10007002800078560001B
:1071740087856100F70F20000720E1009E003200A0
:107184000728E1009C003200010678000400E000BA
:10719400B4003200F7072000878060000170A0006F
:1071A4000500E000C0003200F7072000878161007D
:1071B4000370A000050652000F003A000B50E100D6
:1071C4000B0032000308E10002003A000200E10073
:1071D4007E00320002045000838458000400310011
:1071E4000001FD008101FD008402FD008A05FD000F
:1071F4006044B800210037000520E10005003D008F
:107204000001FD008101FD008402FD008A05FD00EE
:10721400050652007A60E100050035000170A10006
:107224004722DD00848070008A807000630037008C
:107234006044B800EF02660007FF2F0007066600EF
:107244000500E00006003400F08312008714DD001E
:107254000511DE00071BDD00060171008519DE0043
:107264007060E100050035000904780082047800AC
:10727400030178008001EB00700656000B50E1001A
:1072840003003A00020040008380480004003700F5
:1072940060041400E0841C0002005800838058003D
:1072A4000188A300060032008100D1000080D300D1
:1072B4008984D3000884D3000402E800270037003F
:1072C4000178A30025003A000100E0000300320029
:1072D4008186CF00698656000A0037008C002000A2
:1072E4000000E00004003A000900780088047800F7
:1072F4000004EB00700252008086CF000D064600A9
:107304000C06E9007060E10006003500800078009A
:1073140009007800880478000004EB007006560029
:10732400700252000C00E0000C0034008C08DD00F8
:10733400F00316000703DE00868070000C00DD00F9
:10734400074BDE00060070008C4CDD000743DE00B6
:10735400868474000C44DD000C0252006120E100BC
:107364002000350061016000070028008781640067
:10737400F7FF270087836400070374000300E0001D
:107384000600320082037300040032000000E800AB
:10739400E08048000188A3000E003A00F70F2000A7
:1073A4000720E1004A003D000170A1004722DD00F2
:1073B400810072008A8070000000BE004F06BE008B
:1073C4004F05BE004F04BE00000006006000B80078
:1073D400FAFF37008100D1000080D3000402E800E6
:1073E400EEFF37000401780089017400A101070051
:1073F4008A807000F1FF3700F70107000702780068
:107404000001FD008101FD00F301070087027800FF
:10741400850372000778A300040032000001FD0018
:107424008101FD0006020700E4FF370085036200C6
:107434000768A300080032000B50E100030032008B
:10744400F0FF2F00F1FF2700DCFF37000001FD00F3
:107454008101FD00D9FF37000468A300D7FF320083
:10746400FAFF3700F8FF2700888360000B003A001A
:107474000000E00009003A00830364008283730083
:10748400020032000200BE00CCFF37000B50E100C6
:10749400CEFF3A000200BE00C8FF370014002000EF
:1074A400810064003EFF3700F8FF270088836100F5
:1074B40004003A000200E00002003A008C00780068
:1074C400BEFF3700150020008301640039FF370038
:1074D40001F827000000200081007500B7FF370085
:1074E400889FBE008A9FBE008C9FBE001B002000A8
:1074F4000202BE0005866800060028000606660033
:107504004709DE00F20FB200820032000243E800B5
:1075140080003200C729DE00F30FB2007D00320084
:107524000343E8007B003200F107B2000170A000C1
:10753400F507B2000570A000C708DD004903DE00AE
:10754400868070004700DD00C72ADD004923DE0085
:10755400868272004722DD000305510004035000B7
:1075640085835800030031000000400081804800FA
:107574000A05E9008C1F78008A9FBE0004005000B1
:10758400858058000402420085824A0000004000C1
:10759400818048000005EB000004BE006033B800A1
:1075A4000406BE000D48E100560031000500090044
:1075B4004DCCD8000C01B8000D02B8008481410004
:1075C40060824A008283530003045C0084845C006C
:1075D40060055D000A00E00025003A00800578009F
:1075E4000D40E10049003100880078000700780070
:1075F400050009004D88D8000C01B8000D02B80040
:107604008481410060824A006003110083835B002F
:1076140004045C00E0845C000900E00021003A00FE
:107624004F01BE000300E0002B003200E3016000C4
:10763400070673008C817100010032006400700041
:107644004200DE004E5EDD000C007000C258DE0019
:1076540001E0A00083010700CF0178008180710060
:107664004F06BE004F05BE004F04BE0000000600DA
:107674008C8343000D044C00E0844C0060054D00F5
:107684000000E9000A00E000D4FF32008C834300CC
:107694000D044C00E0844C0060054D000000E9003E
:1076A400CEFF37000C0343008D834B0060044C0075
:1076B400E0844C000000E9000900E000D8FF32003B
:1076C4000C0343008D834B0060044C00E0844C00A9
:1076D4000000E900D2FF37004200DE004E5EDD000C
:1076E4000C007000C258DE0001E0A000CF01780059
:1076F4000300E000DAFF320060001000E0801800B0
:10770400D7FF3700F0FF2F00AAFF3700F0FF2F004C
:10771400B9FF37000404BE002F0107008706780074
:107724000004FD008104FD002B01070007836600AF
:107734000678A300030032000960A7000800BE0019
:107744002C0037000D78A300020032000800BE00B0
:10775400280037000778A30026003A0001F0A100B2
:1077640009F0A1000668A30003003200F1FF27001E
:10777400F0FF2F00BAFF37000D68A30003003200AA
:107784000800BE008C807000B5FF37000768A300B6
:1077940007003A000648A30003003200F1FF270067
:1077A400F0FF2F00AEFF37000D48A30003003200A6
:1077B4006000B8008C807000A9FF37000748A30060
:1077C4000400320001F82700000020008C807000C3
:1077D400A3FF3700760107000004FD008104FD00CB
:1077E40002057800720107000802BE008A017800D1
:1077F40059FF37000160A000120220006283880054
:1078040097FF37000100E000120032000500E0009D
:1078140010003200889FBE008A9FBE008C9FBE006D
:107824000006EB0001F8A300030032006000100022
:10783400E08018000CF0A00005F8A300030032005B
:1078440060021200E0821A000CF0A2008005EB0036
:1078540041FF37006000B8000200050003836800A0
:107864000700280007036300470ADE000480A10024
:10787400C71ADE000580A100F70F20000720E100F1
:10788400420032000728E10040003200889FBE0019
:107894008A9FBE008C1F7800F107B200F307B20084
:1078A4000400E000640032000170A0000500E00064
:1078B400680032000370A00085054200EB07B100A8
:1078C4000204B8000302B8008484440060854A00BE
:1078D400020AB800848444000A854A00030AB800F6
:1078E40004054500040033000804D0008984D20054
:1078F4000A85D2008B05E9006158E1003D0035009E
:107904000210200009016100030820008981610040
:10791400F70720008783640008867300C84CDE00E4
:10792400C853DD00878474004855DE000300E0007E
:107934000600320082037600040032008904E80065
:1079440060054D000A88A3000C003A00F70F2000E0
:107954000758E10044003D000A70A100C75DDD0046
:107964000A8575008A007300090078004F067800C4
:107974004F05BE004F04BE00000006000A05D100FA
:107984008984D3008B05E800F0FF3700881F780056
:107994000604780090000700070278000001FD004B
:1079A4008101FD008C0007008702780085037200C6
:1079B4000778A300050032000001FD008101FD00ED
:1079C4009F0007004F047800000006008503720042
:1079D4000748A30003003200F0FF2F00F1FF270047
:1079E400F8FF37000000200001F8270088807000AD
:1079F400F4FF3700880178004848DD008081710079
:107A04004848DE00C850DD0001007000C850DE00A8
:107A1400060478000B0178001600070088807000C7
:107A2400D2FF37000500E0000500320017002000F7
:107A34003A0007009DFF370081037000F9FF3A0008
:107A4400860078004F0678004F05BE004F04BE0044
:107A54000000050083037100F9FF320027002000B5
:107A64002E00070094FF370001F82700868070007D
:107A7400F4FF37000100E00026003200610111002C
:107A84007810E10023003C006022B8007010E1008F
:107A94000400350080027800010078008000EB00CB
:107AA400700151000200E00009003400700311006D
:107AB400062ADD00822ADE008603DD00878272004A
:107AC4000200DE00860BDD00070070008208DE0085
:107AD40084817100F4FF27000482620084817100B4
:107AE40004002800848262006102600005F0A600A0
:107AF4000000060004827100070032000000E80064
:107B0400E0804800000006000002BE006000B800EB
:107B1400EFFF37006000B80000000600889FBE0039
:107B24000004EB006138E10016003A000100E000B7
:107B340008003A00C800DE004800DD00880020008C
:107B44000100E00003003A00C800DE004800DD0048
:107B5400680444008184CF00E984540006003400A2
:107B64008908DD00F08314008703DE00878070003D
:107B74000900DD0009044400610214004F04BE0042
:107B8400000006000300E00008003A00C811DE000F
:107B94004811DD00880020000300E00003003A00E3
:107BA400C811DE004811DD00680444008384CF005E
:107BB400E9845400060034008919DD00F0831400C0
:107BC4008713DE00878171000911DD000904440078
:107BD400E1021400E9FF37002700200001F0A700AC
:107BE40017002000470BDE00F60FB200040032003D
:107BF4000643E8000A0032004702B3000000060012
:107C040001037800F607B2000603700002003A0090
:107C14000703B300000006008702B300000006005B
:107C240001037800F607B200060370000200320078
:107C34000770A000000006000760A0000000060016
:107C44000478A300040032000578A3000300320086
:107C54000168A30001003A000200BE000160A00018
:107C64000000060081017000270032008002EB0052
:107C740001F8A3000300320060001000E080180047
:107C840015002000F4072000020242002000340006
:107C9400F70320008703600006042000000363004C
:107CA40002082000000161004700DE00C909DD0070
:107CB40000807100C708DE000600E0000800320002
:107CC40087037100060032001000B0000180B0008C
:107CD4000188A30002003200C108DE000402E800AB
:107CE400F107B200F30F20000320E10003003D0080
:107CF4004722DD00810072002900370001F82700C7
:107D04000000EB00260037006000B8000000060009
:107D1400680212007F20E100020034006000B80015
:107D24001F0037006011B8007020E1000400350026
:107D340080017800010078008000EB00700252009E
:107D44000400E00009003400F00312000719DD000C
:107D54008419DE000703DD00868171000400DE0063
:107D6400070BDD00060070008408DE00F7FF270023
:107D74008383630087037100060028000303630004
:107D8400070032000700E00003003A0061016000D0
:107D940002817300020032001000B0000180B000C4
:107DA4000500A6000000060001F0A0000000060087
:107DB4004F0ADE004709DE00F107B200F20FB200FD
:107DC4000B003200F207B1000170A000C708DD000B
:107DD400C901DE00838070004700DD000400A600B6
:107DE4000000060060001000E0801800000006009B
:107DF400810F700001003A00000006008182CF006C
:107E04000500E00010003E008082CF00EE824200B8
:107E14007028E1000400390007003E00800078006B
:107E24000000EB000E003700708312008600DE00B5
:107E34000500DD000A003700708352008600DD0073
:107E44000000EB0006003700E28252008508DD00E6
:107E5400708312000603DE00868070000500DD00DA
:107E64007507B0000501EA000400A6000000060042
:107E740060001000E080180000000600889FBE002B
:107E84008A9FBE00841F78007C0007004F007800A2
:107E940011003300F0FF2F00838F6C0006003B00BD
:107EA400040565000A00A7000800370009F0A600D1
:107EB4001000200008003700820F5400838F5C00FC
:107EC400030039001000200001003E0000002000E3
:107ED40009F0A7000000EA004F05BE004F04BE00F1
:107EE4000000E00000000600881F7800030478000A
:107EF4000300E00007003D0060001000E08018006F
:107F040060011900E081190002003B0001F02D001E
:107F1400030037000400070008F0A70001F0A000E8
:107F24004F04780000000600889FBE008A9FBE00B0
:107F34000082700004027100048271002600320085
:107F44000004BE000200BE006011B8006B092000EE
:107F5400950220000182CF000A0039000541B100DA
:107F64000082CF00070039000541B1000982CF002B
:107F7400040039000541B1000882CF000100390036
:107F84000541B10005425200120032000A003B00D4
:107F940082817100610164008100D1000080D300FE
:107FA4008984D3000884D3008B05E8000442E800E8
:107FB400F7FF3A00070037000804440089844C00A6
:107FC40000004800818048008B05E9000442E90074
:107FD400F9FF3A00030007004F05BE004F04BE003E
:107FE4000000060081002000618055000B003D0068
:107FF4000B00200061FE2F000100E1001D00340091
:1080040082817100610164008904D1000884D30075
:108014000000E800FAFF3A007100200061006400EB
:108024000300700002006000090032006104440093
:10803400E0844C000988A500050032008B05E800A7
:108044006808E10002003A008904D1000884D300E2
:10805400F20F20000258E10005003D00C75DDD007D
:10806400F907B20089807500080078000000060056
:108074000BF827008B007800000005000004BE0008
:1080840004FC07000003BE000405BE000200BE009D
:1080940000FC0700844F7500000006000200FA008F
:1080A400000F78001E007800E40F5000100032002A
:1080B4001E007800E40F500004003E001E0078000B
:1080C400E30F5000080032000F0037001E00780054
:1080D400E60F5000080032001E007800E80F500040
:1080E400070032000800370097E3A80006003700B5
:1080F400CDE3A8000400370039E4A80002003700EB
:10810400A5E4A80000000000000000000080FA00C0
:10811400000006000200FA00000F78001E0078003C
:10812400E40F5000100032001E007800E40F5000ED
:1081340004003E001E007800E30F500008003200E7
:108144000F0037001E007800E60F500008003200D0
:108154001E007800E80F50000700320008003700C6
:1081640097E3A90006003700CDE3A9000400370017
:1081740039E4A90002003700A5E4A90000000000CA
:10818400000000000080FA00000006000400FA006D
:10819400000F7800110798001E007800E40F5000CB
:1081A400250032001E007800E40F500004003E0059
:1081B4001E007800E30F500008003200630037000F
:1081C4001E007800E60F5000320032001E007800D6
:1081D400E80F5000460032005C0037001E0090009B
:1081E40000407800674060000080FB00670060008A
:1081F400B21C800081FF2F0081006100010070002B
:10820400B01C88001E009000E20F500005003A00E8
:10821400F01C800054400A0000010000F01C88009B
:108224004A003700F01C800054400A00000000009F
:10823400F01C8800450037001E00900000407800C4
:10824400674060000080FB0067006000621E8000E1
:1082540081FF2F008100610001007000601E880012
:108264001E009000E20F500005003A00A01E80009E
:1082740054400A0000010000A01E880033003700AB
:10828400A01E800054400A0000000000A01E8800C8
:108294002E0037001E009000004078006740600008
:1082A4000080FB0067006000C221800081FF2F0076
:1082B4008100610001007000C02188001E00900050
:1082C400E20F500005003A000022800054400A00EA
:1082D40000010000002288001C00370000228000FA
:1082E40054400A00000000000022880017003700F4
:1082F4001E00900000407800674060000080FB0092
:10830400670060002225800081FF2F00810061004A
:1083140001007000202588001E009000E20F50002C
:1083240005003A006025800054400A000001000066
:1083340060258800040037006025800054400A004E
:10834400000000006025880000000000000000001C
:108354000080FA00000006000000FA0097E3A8007D
:10836400CDE3A80039E4A800A5E4A80000000000BB
:108374000080FA00000006000000FA0097E3A9005C
:10838400CDE3A90039E4A900A5E4A9000000000098
:108394000080FA00000006000200FA00000F7800D6
:1083A4009E00780051188800000000000080FA0048
:1083B400000006000200FA00000F78009E0078001A
:1083C40041188800000000000080FA000000060048
:1083D4000200FA00000F78009E007800311888002F
:1083E400000000000080FA00000006000400FA000B
:1083F400000F7800110798001E007800E40F500069
:10840400110032001E007800E40F500004003E000A
:108414001E007800E30F50000800320013003700FC
:108424001E007800E60F50000A0032001E0078009B
:10843400E80F50000A0032000C0037009E00900044
:10844400F11D8800090037009E009000A11F8800DC
:10845400060037009E0090000123880003003700C7
:108464009E009000612688000000000000000000CB
:108474000080FA00000006000400FA00000F7800F3
:10848400110798001E007800E40F5000110032001C
:108494001E007800E40F500004003E001E00780027
:1084A400E30F500008003200130037001E0078006C
:1084B400E60F50000A0032001E007800E80F50005A
:1084C4000A0032000C0037009E009000D11D880085
:1084D400090037009E009000811F880006003700C5
:1084E4009E009000E1228800030037009E00900067
:1084F4004126880000000000000000000080FA000F
:10850400000006000400FA00000F7800110798002C
:108514001E007800E40F5000190032001E0078009D
:10852400E40F500004003E001E007800E30F5000EA
:1085340008003200330037001E007800E60F5000B8
:108544001A0032001E007800E80F500022003200AA
:108554002C0037001E00900000407800614060004D
:108564000080FB00610060004D00DD00C11C800044
:1085740001D0A10001007000C01C88002100370058
:108584001E00900000407800614060000080FB0005
:10859400610060004D00DD00711E800001D0A1006B
:1085A40001007000701E8800160037001E00900045
:1085B40000407800614060000080FB0061006000C2
:1085C4004D00DD00D121800001D0A1000100700028
:1085D400D02188000B0037001E0090000040780076
:1085E400614060000080FB00610060004D00DD0020
:1085F4003125800001D0A1000100700030258800E1
:1086040000000000000000000080FA0000000600E6
:108614000400FA00000F7800110798001E0078008B
:10862400E40F5000110032001E007800E40F5000E7
:1086340004003E001E007800E30F500008003200E2
:10864400130037001E007800E60F50000A003200C5
:108654001E007800E80F50000A0032000C003700BA
:108664009E009000C11D8800090037009E00900004
:10867400711F8800060037009E009000D1228800F8
:10868400030037009E00900031268800000000009F
:10869400000000000080FA00000006000400FA0058
:1086A400000F7800110798001E007800E40F5000B6
:1086B4001A0032001E007800E40F500004003E004F
:1086C4001E007800E30F5000080032003700370026
:1086D4001E007800E60F50001C0032001E007800D7
:1086E400E80F500025003200300037001E009000D3
:1086F40000407800634060000080FB00630060007D
:108704004A00DD00E21C8000F13F2F00810061007F
:1087140001007000E01C8800240037001E00900057
:1087240000407800634060000080FB00630060004C
:108734004A00DD00921E8000F13F2F00810061009D
:1087440001007000901E8800180037001E00900081
:1087540000407800634060000080FB00630060001C
:108764004A00DD00F2218000F13F2F00810061000A
:1087740001007000F02188000C0037001E009000FA
:1087840000407800634060000080FB0063006000EC
:108794004A00DD0052258000F13F2F008100610076
:1087A4000100700050258800000000000000000057
:1087B4000080FA00000006000400FA00000F7800B0
:1087C400214798001E007800E40F50002100320079
:1087D4001E007800E40F500004003E001E007800E4
:1087E400E30F500008003200530037001E007800E9
:1087F400E60F50002A0032001E007800E80F5000F7
:108804003A0032004C003700E01C8000BA800A00B5
:1088140000000000E14060000E80E8001080FB00D2
:10882400000040000040780000C070006340600019
:108834000080FB00630060004A00DD00E21C800051
:10884400F13F2F008100610001007000E01C8800EE
:1088540039003700901E8000BA800A000000000032
:10886400E14060000E80E8001080FB000000400042
:108874000040780000C07000634060000080FB008E
:10888400630060004A00DD00921E8000F13F2F006B
:108894008100610001007000901E880026003700EE
:1088A400F0218000BA800A0000000000E14060006E
:1088B4000E80E8001080FB000000400000407800BB
:1088C40000C07000634060000080FB006300600033
:1088D4004A00DD00F2218000F13F2F008100610099
:1088E40001007000F021880013003700502580003B
:1088F400BA800A0000000000E14060000E80E80039
:108904001080FB00000040000040780000C07000B0
:10891400634060000080FB00630060004A00DD00EB
:1089240052258000F13F2F0081006100010070009A
:108934005025880000000000000000000080FA00BC
:10894400000006000400FA00000F78002147980098
:108954001E007800E40F50001E0032001E00780054
:10896400E40F500004003E001E007800E30F5000A6
:1089740008003200470037001E007800E60F500060
:10898400240032001E007800E80F5000310032004D
:1089940040003700E01C8000BA800A00000000009C
:1089A400E24060002E40900000C070006340600010
:1089B4000080FB00630060004A00DD00E21C8000D0
:1089C400F13F2F008100610001007000E01C88006D
:1089D40030003700901E8000BA800A0000000000BA
:1089E400E24060002E40900000C0700063406000D0
:1089F4000080FB00630060004A00DD00921E8000DE
:108A0400F13F2F008100610001007000901E88007A
:108A140020003700F0218000BA800A000000000026
:108A2400E24060002E40900000C07000634060008F
:108A34000080FB00630060004A00DD00F22180003A
:108A4400F13F2F008100610001007000F0218800D7
:108A54001000370050258000BA800A000000000092
:108A6400E24060002E40900000C07000634060004F
:108A74000080FB00630060004A00DD005225800096
:108A8400F13F2F0081006100010070005025880033
:108A940000000000000000000080FA000000060052
:108AA4000400FA00100798000000EB00000F7800A3
:108AB4001E009000E40F5000140032001E009000CD
:108AC400E40F500004003E001E009000E30F50002D
:108AD400080032001F0037001E009000E60F50000F
:108AE400100032001E009000E80F50001300320006
:108AF40018003700E01C8000BA800A000000000063
:108B04000080FB00000F780012003700901E8000E8
:108B1400BA800A00000000000080FB00000F78000B
:108B24000C003700F0218000BA800A000000000029
:108B34000080FB00000F78000600370050258000FD
:108B4400BA800A00000000000080FB00000F7800DB
:108B5400000000001E0078000080FA0000000600FB
:108B64000200FA00000F78001E007800E40F5000A5
:108B7400100032001E007800E40F500004003E0094
:108B84001E007800E30F5000080032000F00370089
:108B94001E007800E60F5000080032001E00780026
:108BA400E80F500007003200080037009DA3A8001A
:108BB40006003700D3A3A800040037003FA4A80090
:108BC40002003700ABA4A800000000000000000071
:108BD4000080FA00000006000200FA00000F78008E
:108BE4001E007800E40F5000100032001E007800D0
:108BF400E40F500004003E001E007800E30F500014
:108C0400080032000F0037001E007800E60F500005
:108C1400080032001E007800E80F50000700320000
:108C2400080037009D83A80006003700D383A800FE
:108C3400040037003F84A80002003700AB84A8007A
:108C440000000000000000000080FA0000000600A0
:108C54000200FA00000F78001E007800E40F5000B4
:108C6400100032001E007800E40F500004003E00A3
:108C74001E007800E30F5000080032000F00370098
:108C84001E007800E60F5000080032001E00780035
:108C9400E80F500007003200080037009DA3A90028
:108CA40006003700D3A3A900040037003FA4A9009D
:108CB40002003700ABA4A90000000000000000007F
:108CC4000080FA00000006000200FA00000F78009D
:108CD4001E007800E40F5000100032001E007800DF
:108CE400E40F500004003E001E007800E30F500023
:108CF400080032000F0037001E007800E60F500015
:108D0400080032001E007800E80F5000070032000F
:108D1400080037009D83A90006003700D383A9000B
:108D2400040037003F84A90002003700AB84A90087
:108D340000000000000000000080FA0000000600AF
:108D44000400FA00000F7800110798001E00780054
:108D5400E40F5000110032001E007800E40F5000B0
:108D640004003E001E007800E30F500008003200AB
:108D7400130037001E007800E60F50000A0032008E
:108D84001E007800E80F50000A0032000C00370083
:108D94009E009000311E8800090037009E0090005C
:108DA400E11F8800060037009E00900041238800E0
:108DB400030037009E009000A126880000000000F8
:108DC400000000000080FA00000006000400FA0021
:108DD400000F7800110798001E007800E40F50007F
:108DE400110032001E007800E40F500004003E0021
:108DF4001E007800E30F5000080032001300370013
:108E04001E007800E60F50000A0032001E007800B1
:108E1400E80F50000A0032000C0037009E0090005A
:108E2400411E8800090037009E009000F11F880051
:108E3400060037009E00900051238800030037008D
:108E44009E009000B1268800000000000000000091
:108E54000080FA00000006000400FA00000F780009
:108E6400110798001E007800E40F50001300320030
:108E74001E007800E40F500004003E001E0078003D
:108E8400E30F5000080032001B0037001E0078007A
:108E9400E60F50000E0032001E007800E80F50006C
:108EA40010003200140037009E009000311E88002C
:108EB4009E009000411E88000F0037009E00900025
:108EC400E11F88009E009000F11F88000A0037000F
:108ED4009E009000412388009E009000512388004A
:108EE400050037009E009000A12688009E00900097
:108EF400B126880000000000000000000080FA0095
:108F0400000006000400FA00000F78001107980022
:108F14001E007800E40F5000110032001E0078009B
:108F2400E40F500004003E001E007800E30F5000E0
:108F340008003200130037001E007800E60F5000CE
:108F44000A0032001E007800E80F50000A003200C8
:108F54000C0037009E009000011E880009003700B5
:108F64009E009000B11F8800060037009E0090000C
:108F740011238800030037009E00900071268800AA
:108F840000000000000000000080FA00000006005D
:108F94000400FA00000F7800110798001E00780002
:108FA400E40F5000280032001E007800E40F500047
:108FB40004003E001E007800E30F50000800320059
:108FC4006F0037001E007800E60F500038003200B2
:108FD4001E007800E80F50004F0032006800370090
:108FE4001E009000E20F5000100032001E0090009E
:108FF400E20F500004003E001E009000E10F5000FC
:10900400080032000F0037001E009000E30F5000EC
:10901400080032001E009000E40F500007003200E8
:1090240008003700A3E3A80006003700A3C3A80084
:1090340004003700A3A3A80002003700A383A800FC
:10904400000000004E0037001E009000E20F5000A8
:10905400100032001E009000E20F500004003E0099
:109064001E009000E10F5000080032000F0037008E
:109074001E009000E30F5000080032001E00900014
:10908400E40F50000700320008003700D9E3A800BD
:1090940006003700D9C3A80004003700D9A3A800EC
:1090A40002003700D983A800000000003400370014
:1090B4001E009000E20F5000100032001E009000CD
:1090C400E20F500004003E001E009000E10F50002B
:1090D400080032000F0037001E009000E30F50001C
:1090E400080032001E009000E40F50000700320018
:1090F4000800370045E4A8000600370045C4A8006E
:109104000400370045A4A800020037004584A800E5
:10911400000000001A0037001E009000E20F50000B
:10912400100032001E009000E20F500004003E00C8
:109134001E009000E10F5000080032000F003700BD
:109144001E009000E30F5000080032001E00900043
:10915400E40F50000700320008003700B1E4A80013
:1091640006003700B1C4A80004003700B1A4A80069
:1091740002003700B184A8000000000000000000D5
:10918400000000000080FA00000006000400FA005D
:10919400000F7800110798001E007800E40F5000BB
:1091A400280032001E007800E40F500004003E0046
:1091B4001E007800E30F5000080032006F003700F3
:1091C4001E007800E60F5000380032001E007800C0
:1091D400E80F50004F003200680037001E00900076
:1091E400E20F5000100032001E009000E20F500009
:1091F40004003E001E009000E10F50000800320001
:109204000F0037001E009000E30F500008003200EA
:109214001E009000E40F50000700320008003700E1
:10922400A3E3A90006003700A3C3A9000400370084
:10923400A3A3A90002003700A383A9000000000033
:109244004E0037001E009000E20F50001000320064
:109254001E009000E20F500004003E001E0090002B
:10926400E10F5000080032000F0037001E0090008C
:10927400E30F5000080032001E009000E40F50007D
:109284000700320008003700D9E3A90006003700C0
:10929400D9C3A90004003700D9A3A90002003700EC
:1092A400D983A90000000000340037001E0090009C
:1092B400E20F5000100032001E009000E20F500038
:1092C40004003E001E009000E10F50000800320030
:1092D4000F0037001E009000E30F5000080032001A
:1092E4001E009000E40F5000070032000800370011
:1092F40045E4A9000600370045C4A900040037006E
:1093040045A4A900020037004584A900000000001C
:109314001A0037001E009000E20F500010003200C7
:109324001E009000E20F500004003E001E0090005A
:10933400E10F5000080032000F0037001E009000BB
:10934400E30F5000080032001E009000E40F5000AC
:109354000700320008003700B1E4A9000600370016
:10936400B1C4A90004003700B1A4A9000200370069
:10937400B184A9000000000000000000000000000B
:109384000080FA00000006000400FA00000F7800D4
:10939400110798001E007800E40F500028003200E6
:1093A4001E007800E40F500004003E001E00780008
:1093B400E30F5000080032006F0037001E007800F1
:1093C400E60F5000380032001E007800E80F50000D
:1093D4004F003200680037001E009000E20F50007A
:1093E400100032001E009000E20F500004003E0006
:1093F4001E009000E10F5000080032000F003700FB
:109404001E009000E30F5000080032001E00900080
:10941400E40F500007003200080037009BC3A90086
:10942400060037009BA3A900040037009B83A90012
:10943400020037009BE3A900000000004E00370043
:109444001E009000E20F5000100032001E00900039
:10945400E20F500004003E001E009000E10F500097
:10946400080032000F0037001E009000E30F500088
:10947400080032001E009000E40F50000700320084
:1094840008003700D1C3A90006003700D1A3A90002
:1094940004003700D183A90002003700D1E3A900FA
:1094A40000000000340037001E009000E20F50005E
:1094B400100032001E009000E20F500004003E0035
:1094C4001E009000E10F5000080032000F0037002A
:1094D4001E009000E30F5000080032001E009000B0
:1094E400E40F500007003200080037003DC4A90013
:1094F400060037003DA4A900040037003D84A900FC
:10950400020037003DE4A900000000001A00370003
:109514001E009000E20F5000100032001E00900068
:10952400E20F500004003E001E009000E10F5000C6
:10953400080032000F0037001E009000E30F5000B7
:10954400080032001E009000E40F500007003200B3
:1095540008003700A9C4A90006003700A9A4A9007F
:1095640004003700A984A90002003700A9E4A90077
:109574000000000000000000000000000080FA006D
:10958400000006000600FA00100798002107980062
:109594000040EB00004F78001E009000E40F5000E4
:1095A400480032001E009000E40F500004003E000A
:1095B4001E009000E30F500008003200EF00370057
:1095C4001E009000E60F5000780032001E0090004C
:1095D400E80F5000AF003200E80037002E00900082
:1095E400E20F5000180032002E009000E20F5000ED
:1095F40004003E002E009000E10F500008003200ED
:109604002F0037002E009000E30F500018003200A6
:109614002E009000E40F50001F0032002800370095
:10962400D01C80004E00DE00614060000080FB0022
:1096340000F0A7000000EA000000EA004F00DE008E
:10964400004F78001E003700D01C80004D00DE0063
:10965400614060000080FB0000F0A7000000EA0009
:109664000000EA004F00DE00004F780014003700CD
:10967400D01C80004C00DE00614060000080FB00D4
:1096840000F0A7000000EA000000EA004F00DE003E
:10969400004F78000A003700D01C80004F00DE0025
:1096A400004078000080FB0000F0A7000000EA0002
:1096B4000000EA004F00DE00004F780000000000C8
:1096C400AE0037002E009000E20F50001800320068
:1096D4002E009000E20F500004003E002E00900087
:1096E400E10F5000080032002F0037002E009000D8
:1096F400E30F5000180032002E009000E40F5000D9
:109704001F00320028003700801E80004E00DE005B
:10971400614060000080FB0000F0A7000000EA0048
:109724000000EA004F00DE00004F78001E00370002
:10973400801E80004D00DE00614060000080FB0060
:1097440000F0A7000000EA000000EA004F00DE007D
:10975400004F780014003700801E80004C00DE00AB
:10976400614060000080FB0000F0A7000000EA00F8
:109774000000EA004F00DE00004F78000A003700C6
:10978400801E80004F00DE00004078000080FB0057
:1097940000F0A7000000EA000000EA004F00DE002D
:1097A400004F780000000000740037002E00900085
:1097B400E20F5000180032002E009000E20F50001B
:1097C40004003E002E009000E10F5000080032001B
:1097D4002F0037002E009000E30F500018003200D5
:1097E4002E009000E40F50001F00320028003700C4
:1097F400E02180004E00DE00614060000080FB003C
:1098040000F0A7000000EA000000EA004F00DE00BC
:10981400004F78001E003700E02180004D00DE007C
:10982400614060000080FB0000F0A7000000EA0037
:109834000000EA004F00DE00004F780014003700FB
:10984400E02180004C00DE00614060000080FB00ED
:1098540000F0A7000000EA000000EA004F00DE006C
:10986400004F78000A003700E02180004F00DE003E
:10987400004078000080FB0000F0A7000000EA0030
:109884000000EA004F00DE00004F780000000000F6
:109894003A0037002E009000E20F5000180032000A
:1098A4002E009000E20F500004003E002E009000B5
:1098B400E10F5000080032002F0037002E00900006
:1098C400E30F5000180032002E009000E40F500007
:1098D4001F00320028003700402580004E00DE00C3
:1098E400614060000080FB0000F0A7000000EA0077
:1098F4000000EA004F00DE00004F78001E00370031
:10990400402580004D00DE00614060000080FB00C7
:1099140000F0A7000000EA000000EA004F00DE00AB
:10992400004F780014003700402580004C00DE0012
:10993400614060000080FB0000F0A7000000EA0026
:109944000000EA004F00DE00004F78000A003700F4
:10995400402580004F00DE00004078000080FB00BE
:1099640000F0A7000000EA000000EA004F00DE005B
:10997400004F780000000000000000001E40780046
:109984000080FA00000006000200FA00000F7800D0
:109994001E007800E40F5000100032001E00780012
:1099A400E40F500004003E001E007800E30F500056
:1099B400080032000F0037001E007800E60F500048
:1099C400080032001E007800E80F50000700320043
:1099D400080037009A63A80006003700D063A80087
:1099E400040037003C64A80002003700A864A80003
:1099F40000000000000000000080FA0000000600E3
:109A04000400FA00100798000040EB00004F7800B3
:109A14001E009000E40F5000180032001E00900059
:109A2400E40F500004003E001E009000E30F5000BD
:109A3400080032002F0037001E009000E60F50008F
:109A4400180032001E009000E80F50001F00320082
:109A540028003700D01C80004400DE006140600014
:109A64000080FB0000F0A7000000EA000000EA000C
:109A74004F00DE00004F78001E003700801E80007B
:109A84004400DE00614060000080FB0000F0A7009D
:109A94000000EA000000EA004F00DE00004F7800FA
:109AA40014003700E02180004400DE0061406000C3
:109AB4000080FB0000F0A7000000EA000000EA00BC
:109AC4004F00DE00004F78000A0037004025800078
:109AD4004400DE00614060000080FB0000F0A7004D
:109AE4000000EA000000EA004F00DE00004F7800AA
:109AF400000000001E4078000080FA00000006000C
:109B04000400FA00000F7800110798001E00780086
:109B1400E40F5000110032001E007800E40F5000E2
:109B240004003E001E007800E30F500008003200DD
:109B3400130037001E007800E60F50000A003200C0
:109B44001E007800E80F50000A0032000C003700B5
:109B54009E009000011E8800090037009E009000BE
:109B6400B11F8800060037009E0090001123880072
:109B7400030037009E00900071268800000000005A
:109B8400000000000080FA00000006000400FA0053
:109B9400000F7800110798001E007800E40F5000B1
:109BA400110032001E007800E40F500004003E0053
:109BB4001E007800E30F5000080032001300370045
:109BC4001E007800E60F50000A0032001E007800E4
:109BD400E80F50000A0032000C0037009E0090008D
:109BE400111E8800090037009E009000C11F8800E4
:109BF400060037009E0090002123880003003700F0
:109C04009E009000812688000000000000000000F3
:109C14000080FA00000006000400FA00000F78003B
:109C2400110798001E007800E40F50001100320064
:109C34001E007800E40F500004003E001E0078006F
:109C4400E30F500008003200130037001E007800B4
:109C5400E60F50000A0032001E007800E80F5000A2
:109C64000A0032000C0037009E009000211E88007C
:109C7400090037009E009000D11F880006003700BD
:109C84009E00900031238800030037009E0090005E
:109C94009126880000000000000000000080FA0007
:109CA400000006000400FA00000F78001107980075
:109CB4001E007800E40F50001F0032001E007800E0
:109CC400E40F500004003E001E007800E30F500033
:109CD400080032004B0037001E007800E60F5000E9
:109CE400260032001E007800E80F500034003200D5
:109CF400440037001E009000E20F500008003200BC
:109D04001E009000E30F5000070032001E00900078
:109D1400E10F500006003A00A103A8000500370037
:109D2400A123A80003003700A143A80001003700C5
:109D340000000000330037001E009000E20F5000C6
:109D4400080032001E009000E30F500007003200AC
:109D54001E009000E10F500006003A00D703A8004F
:109D640005003700D723A80003003700D743A80015
:109D74000100370000000000220037001E009000A0
:109D8400E20F5000080032001E009000E30F500064
:109D9400070032001E009000E10F500006003A0058
:109DA4004304A800050037004324A800030037003B
:109DB4004344A800010037000000000011003700F0
:109DC4001E009000E20F5000080032001E009000B8
:109DD400E30F5000070032001E009000E10F500016
:109DE40006003A00AF04A80005003700AF24A8001D
:109DF40003003700AF44A800010037000000000052
:109E040000000000000000000080FA0000000600CE
:109E14000400FA00000F7800110798001E00780073
:109E2400E40F50001F0032001E007800E40F5000C1
:109E340004003E001E007800E30F500008003200CA
:109E44004B0037001E007800E60F50002600320059
:109E54001E007800E80F5000340032004400370040
:109E64001E009000E20F5000080032001E00900017
:109E7400E30F5000070032001E009000E10F500075
:109E840006003A00A103A90005003700A123A90098
:109E940003003700A143A9000100370000000000BF
:109EA400330037001E009000E20F5000080032001B
:109EB4001E009000E30F5000070032001E009000C7
:109EC400E10F500006003A00D703A900050037004F
:109ED400D723A90003003700D743A90001003700A6
:109EE40000000000220037001E009000E20F500026
:109EF400080032001E009000E30F500007003200FB
:109F04001E009000E10F500006003A004304A9002F
:109F1400050037004324A900030037004344A90087
:109F24000100370000000000110037001E009000FF
:109F3400E20F5000080032001E009000E30F5000B2
:109F4400070032001E009000E10F500006003A00A6
:109F5400AF04A90005003700AF24A90003003700AF
:109F6400AF44A90001003700000000000000000019
:109F7400000000000080FA00000006000400FA005F
:109F8400000F7800110798001E007800E40F5000BD
:109F94001F0032001E007800E40F500004003E0051
:109FA4001E007800E30F5000080032004B00370019
:109FB4001E007800E60F5000260032001E007800D4
:109FC400E80F500034003200440037001E009000B7
:109FD400E20F5000080032001E009000E30F500012
:109FE400070032001E009000E10F500006003A0006
:109FF400A2A3A80005003700A2C3A80003003700ED
:10A00400A2E3A8000100370000000000330037007D
:10A014001E009000E20F5000080032001E00900065
:10A02400E30F5000070032001E009000E10F5000C3
:10A0340006003A00D8A3A80005003700D8C3A8003A
:10A0440003003700D8E3A800010037000000000037
:10A05400220037001E009000E20F5000080032007A
:10A064001E009000E30F5000070032001E00900015
:10A07400E10F500006003A0044A4A8000500370090
:10A0840044C4A8000300370044E4A80001003700DA
:10A0940000000000110037001E009000E20F500085
:10A0A400080032001E009000E30F50000700320049
:10A0B4001E009000E10F500006003A00B0A4A80072
:10A0C40005003700B0C4A80003003700B0E4A800BE
:10A0D4000100370000000000000000000000000044
:10A0E4000080FA00000006000400FA00000F780067
:10A0F400110798001E007800E40F50001F00320082
:10A104001E007800E40F500004003E001E0078009A
:10A11400E30F5000080032004B0037001E007800A7
:10A12400E60F5000260032001E007800E80F5000B1
:10A1340034003200440037001E009000E20F50004B
:10A14400080032001E009000E30F500007003200A8
:10A154001E009000E10F500006003A00A2A3A900DF
:10A1640005003700A2C3A90003003700A2E3A90039
:10A174000100370000000000330037001E0090008B
:10A18400E20F5000080032001E009000E30F500060
:10A19400070032001E009000E10F500006003A0054
:10A1A400D8A3A90005003700D8C3A90003003700CD
:10A1B400D8E3A900010037000000000022003700A6
:10A1C4001E009000E20F5000080032001E009000B4
:10A1D400E30F5000070032001E009000E10F500012
:10A1E40006003A0044A4A9000500370044C4A900AD
:10A1F4000300370044E4A900010037000000000018
:10A20400110037001E009000E20F500008003200D9
:10A214001E009000E30F5000070032001E00900063
:10A22400E10F500006003A00B0A4A9000500370071
:10A23400B0C4A90003003700B0E4A900010037004E
:10A244000000000000000000000000000080FA0090
:10A25400000006000200FA00000F78001E007800DB
:10A26400E40F5000100032001E007800E40F50008C
:10A2740004003E001E007800E30F50000800320086
:10A284000F0037001E007800E60F5000080032006F
:10A294001E007800E80F5000070032000800370065
:10A2A400A4E3A80006003700DAE3A800040037009E
:10A2B40046E4A80002003700B2E4A8000000000051
:10A2C400000000000080FA00000006000000FA0010
:10A2D400C0082000B01C8800C0082000601E880050
:10A2E400C0082000C0218800C00820002025880064
:10A2F400CA23EF00AA23EF00A823EF009823EF005E
:10A30400BA23EF00BC23EF00C823EF00C623EF00FD
:10A31400A223EF0080102000001D8800AE23EF0070
:10A32400AC23EF00A623EF00A423EF00C00120001C
:10A33400F01C880000202100E01C8800B623EF00F8
:10A34400B423EF0080E12400F01D8800B823EF005F
:10A35400B223EF00B023EF009A23EF00C023EF00F5
:10A36400C223EF00C423EF000024EF00E023EF003A
:10A37400DE23EF00CE23EF00F023EF00F223EF0003
:10A38400FE23EF00FC23EF00D823EF008000200021
:10A39400B01E8800E423EF00E223EF00DC23EF008B
:10A3A400DA23EF00C0012000A01E88000020210055
:10A3B400901E8800EC23EF00EA23EF0080E12400E4
:10A3C400A01F8800EE23EF00E823EF00E623EF0050
:10A3D400D023EF00F623EF00F823EF00FA23EF0079
:10A3E4006C24EF004C24EF004A24EF003A24EF00E1
:10A3F4005C24EF005E24EF006A24EF006824EF0081
:10A404004424EF0080102000102288005024EF0024
:10A414004E24EF004824EF004624EF00C001200042
:10A424000022880000202100F02188005824EF0039
:10A434005624EF0080E12400002388005A24EF0012
:10A444005424EF005224EF003C24EF006224EF0078
:10A454006424EF006624EF00D824EF00B824EF0052
:10A46400B624EF00A624EF00C824EF00CA24EF00AE
:10A47400D624EF00D424EF00B024EF0080002000A5
:10A4840070258800BC24EF00BA24EF00B424EF0048
:10A49400B224EF00C00120006025880000202100C4
:10A4A40050258800C424EF00C224EF0080E124007A
:10A4B40060268800C624EF00C024EF00BE24EF000D
:10A4C400A824EF00CE24EF00D024EF00D224EF0024
:10A4D4001023EF000E23EF000223EF000423EF000C
:10A4E4000C23EF001223EF001423EF001623EF00D8
:10A4F4001823EF001A23EF001C23EF000823EF00BA
:10A50400309C2000501888000623EF003000200003
:10A51400001888001E23EF002023EF002223EF0001
:10A524002423EF002623EF002823EF00C03C25005E
:10A534008E00070000000000021B07006140680055
:10A544000004E000FCFF3A00000000000080FA0074
:10A55400000006000000FA0087F707009623EF00CA
:10A56400CC23EF003824EF00A424EF00CA23EF002B
:10A57400AA23EF00A823EF009823EF00BA23EF00EB
:10A58400BC23EF00C823EF00C623EF00A223EF0093
:10A59400A023EF00AE23EF00AC23EF00A623EF00CF
:10A5A400A423EF009E23EF009C23EF00B623EF00CB
:10A5B400B423EF00BE23EF00B823EF00B223EF0073
:10A5C400B023EF009A23EF00C023EF00C223EF0073
:10A5D400C423EF000024EF00E023EF00DE23EF00AC
:10A5E400CE23EF00F023EF00F223EF00FE23EF0071
:10A5F400FC23EF00D823EF00D623EF00E423EF0081
:10A60400E223EF00DC23EF00DA23EF00D423EF0092
:10A61400D223EF00EC23EF00EA23EF00F423EF0052
:10A62400EE23EF00E823EF00E623EF00D023EF0052
:10A63400F623EF00F823EF00FA23EF006C24EF0079
:10A644004C24EF004A24EF003A24EF005C24EF008E
:10A654005E24EF006A24EF006824EF004424EF0036
:10A664004224EF005024EF004E24EF004824EF0072
:10A674004624EF004024EF003E24EF005824EF006E
:10A684005624EF006024EF005A24EF005424EF0016
:10A694005224EF003C24EF006224EF006424EF0016
:10A6A4006624EF00D824EF00B824EF00B624EF00AE
:10A6B400A624EF00C824EF00CA24EF00D624EF003C
:10A6C400D424EF00B024EF00AE24EF00BC24EF004C
:10A6D400BA24EF00B424EF00B224EF00AC24EF005E
